{
  "_format": "hh-sol-artifact-1",
  "contractName": "SportsOracle",
  "sourceName": "contracts/SportsOracle.sol",
  "abi": [
    {
      "inputs": [],
      "stateMutability": "nonpayable",
      "type": "constructor"
    },
    {
      "anonymous": false,
      "inputs": [
        {
          "indexed": true,
          "internalType": "uint256",
          "name": "matchId",
          "type": "uint256"
        },
        {
          "indexed": true,
          "internalType": "uint256",
          "name": "playerId",
          "type": "uint256"
        }
      ],
      "name": "DataFinalized",
      "type": "event"
    },
    {
      "anonymous": false,
      "inputs": [
        {
          "indexed": true,
          "internalType": "uint256",
          "name": "matchId",
          "type": "uint256"
        },
        {
          "indexed": true,
          "internalType": "uint256",
          "name": "playerId",
          "type": "uint256"
        }
      ],
      "name": "DataSubmitted",
      "type": "event"
    },
    {
      "inputs": [
        {
          "internalType": "uint256",
          "name": "matchId",
          "type": "uint256"
        },
        {
          "internalType": "uint256",
          "name": "playerId",
          "type": "uint256"
        }
      ],
      "name": "finalizeMatch",
      "outputs": [],
      "stateMutability": "nonpayable",
      "type": "function"
    },
    {
      "inputs": [],
      "name": "oracleAddress",
      "outputs": [
        {
          "internalType": "address",
          "name": "",
          "type": "address"
        }
      ],
      "stateMutability": "view",
      "type": "function"
    },
    {
      "inputs": [
        {
          "internalType": "uint256",
          "name": "",
          "type": "uint256"
        },
        {
          "internalType": "uint256",
          "name": "",
          "type": "uint256"
        }
      ],
      "name": "performances",
      "outputs": [
        {
          "internalType": "uint256",
          "name": "pointsScored",
          "type": "uint256"
        },
        {
          "internalType": "bool",
          "name": "finalized",
          "type": "bool"
        }
      ],
      "stateMutability": "view",
      "type": "function"
    },
    {
      "inputs": [
        {
          "internalType": "uint256",
          "name": "matchId",
          "type": "uint256"
        },
        {
          "internalType": "uint256",
          "name": "playerId",
          "type": "uint256"
        },
        {
          "internalType": "uint256",
          "name": "pointsScored",
          "type": "uint256"
        }
      ],
      "name": "submitPlayerData",
      "outputs": [],
      "stateMutability": "nonpayable",
      "type": "function"
    }
  ],
  "bytecode": "0x608060405234801561001057600080fd5b50336000806101000a81548173ffffffffffffffffffffffffffffffffffffffff021916908373ffffffffffffffffffffffffffffffffffffffff160217905550610637806100606000396000f3fe608060405234801561001057600080fd5b506004361061004c5760003560e01c8063071b8c30146100515780635daca7621461006d578063a32107fe14610089578063a89ae4ba146100ba575b600080fd5b61006b600480360381019061006691906103d6565b6100d8565b005b61008760048036038101906100829190610429565b61023a565b005b6100a3600480360381019061009e9190610429565b610339565b6040516100b1929190610493565b60405180910390f35b6100c2610377565b6040516100cf91906104fd565b60405180910390f35b60008054906101000a900473ffffffffffffffffffffffffffffffffffffffff1673ffffffffffffffffffffffffffffffffffffffff163373ffffffffffffffffffffffffffffffffffffffff1614610166576040517f08c379a000000000000000000000000000000000000000000000000000000000815260040161015d90610575565b60405180910390fd5b60016000848152602001908152602001600020600083815260200190815260200160002060010160009054906101000a900460ff16156101db576040517f08c379a00000000000000000000000000000000000000000000000000000000081526004016101d2906105e1565b60405180910390fd5b806001600085815260200190815260200160002060008481526020019081526020016000206000018190555081837f8e02165c32e3fe774a93d7f62c2ba5fb32479a920c28e338092644bfbafd609360405160405180910390a3505050565b60008054906101000a900473ffffffffffffffffffffffffffffffffffffffff1673ffffffffffffffffffffffffffffffffffffffff163373ffffffffffffffffffffffffffffffffffffffff16146102c8576040517f08c379a00000000000000000000000000000000000000000000000000000000081526004016102bf90610575565b60405180910390fd5b6001806000848152602001908152602001600020600083815260200190815260200160002060010160006101000a81548160ff02191690831515021790555080827fc8dc5e3a909d4de16252ee01e69ed93f2914b5f7c4b087041070ef7da329ef2960405160405180910390a35050565b6001602052816000526040600020602052806000526040600020600091509150508060000154908060010160009054906101000a900460ff16905082565b60008054906101000a900473ffffffffffffffffffffffffffffffffffffffff1681565b600080fd5b6000819050919050565b6103b3816103a0565b81146103be57600080fd5b50565b6000813590506103d0816103aa565b92915050565b6000806000606084860312156103ef576103ee61039b565b5b60006103fd868287016103c1565b935050602061040e868287016103c1565b925050604061041f868287016103c1565b9150509250925092565b600080604083850312156104405761043f61039b565b5b600061044e858286016103c1565b925050602061045f858286016103c1565b9150509250929050565b610472816103a0565b82525050565b60008115159050919050565b61048d81610478565b82525050565b60006040820190506104a86000830185610469565b6104b56020830184610484565b9392505050565b600073ffffffffffffffffffffffffffffffffffffffff82169050919050565b60006104e7826104bc565b9050919050565b6104f7816104dc565b82525050565b600060208201905061051260008301846104ee565b92915050565b600082825260208201905092915050565b7f4f6e6c79206f7261636c652063616e2063616c6c000000000000000000000000600082015250565b600061055f601483610518565b915061056a82610529565b602082019050919050565b6000602082019050818103600083015261058e81610552565b9050919050565b7f4461746120616c72656164792066696e616c697a656400000000000000000000600082015250565b60006105cb601683610518565b91506105d682610595565b602082019050919050565b600060208201905081810360008301526105fa816105be565b905091905056fea2646970667358221220a2c43dc6eaa7bf2f959195d8a4d55b56b5de71ecab174df1caf9dbc80a637ca564736f6c63430008140033",
  "linkReferences": {},
  "deployedLinkReferences": {}
}