{
  "_format": "hh-sol-artifact-1",
  "contractName": "BettingMarket",
  "sourceName": "contracts/BettingMarket.sol",
  "abi": [
    {
      "inputs": [
        {
          "internalType": "address",
          "name": "_oracleAddress",
          "type": "address"
        }
      ],
      "stateMutability": "nonpayable",
      "type": "constructor"
    },
    {
      "anonymous": false,
      "inputs": [
        {
          "indexed": true,
          "internalType": "uint256",
          "name": "betId",
          "type": "uint256"
        },
        {
          "indexed": true,
          "internalType": "address",
          "name": "bettor",
          "type": "address"
        },
        {
          "indexed": false,
          "internalType": "uint256",
          "name": "amount",
          "type": "uint256"
        }
      ],
      "name": "BetPlaced",
      "type": "event"
    },
    {
      "anonymous": false,
      "inputs": [
        {
          "indexed": true,
          "internalType": "uint256",
          "name": "betId",
          "type": "uint256"
        },
        {
          "indexed": true,
          "internalType": "address",
          "name": "bettor",
          "type": "address"
        },
        {
          "indexed": false,
          "internalType": "bool",
          "name": "won",
          "type": "bool"
        },
        {
          "indexed": false,
          "internalType": "uint256",
          "name": "payout",
          "type": "uint256"
        }
      ],
      "name": "BetSettled",
      "type": "event"
    },
    {
      "inputs": [
        {
          "internalType": "uint256",
          "name": "",
          "type": "uint256"
        }
      ],
      "name": "bets",
      "outputs": [
        {
          "internalType": "address",
          "name": "bettor",
          "type": "address"
        },
        {
          "internalType": "uint256",
          "name": "amount",
          "type": "uint256"
        },
        {
          "internalType": "bool",
          "name": "settled",
          "type": "bool"
        },
        {
          "internalType": "uint256",
          "name": "matchId",
          "type": "uint256"
        },
        {
          "internalType": "uint256",
          "name": "playerId",
          "type": "uint256"
        },
        {
          "internalType": "uint256",
          "name": "predictedValue",
          "type": "uint256"
        }
      ],
      "stateMutability": "view",
      "type": "function"
    },
    {
      "inputs": [],
      "name": "nextBetId",
      "outputs": [
        {
          "internalType": "uint256",
          "name": "",
          "type": "uint256"
        }
      ],
      "stateMutability": "view",
      "type": "function"
    },
    {
      "inputs": [],
      "name": "oracle",
      "outputs": [
        {
          "internalType": "contract SportsOracle",
          "name": "",
          "type": "address"
        }
      ],
      "stateMutability": "view",
      "type": "function"
    },
    {
      "inputs": [
        {
          "internalType": "uint256",
          "name": "matchId",
          "type": "uint256"
        },
        {
          "internalType": "uint256",
          "name": "playerId",
          "type": "uint256"
        },
        {
          "internalType": "uint256",
          "name": "predictedValue",
          "type": "uint256"
        }
      ],
      "name": "placeBet",
      "outputs": [],
      "stateMutability": "payable",
      "type": "function"
    },
    {
      "inputs": [
        {
          "internalType": "uint256",
          "name": "betId",
          "type": "uint256"
        }
      ],
      "name": "settleBet",
      "outputs": [],
      "stateMutability": "nonpayable",
      "type": "function"
    },
    {
      "stateMutability": "payable",
      "type": "receive"
    }
  ],
  "bytecode": "0x608060405234801561001057600080fd5b50604051610e7b380380610e7b833981810160405281019061003291906100db565b806000806101000a81548173ffffffffffffffffffffffffffffffffffffffff021916908373ffffffffffffffffffffffffffffffffffffffff16021790555050610108565b600080fd5b600073ffffffffffffffffffffffffffffffffffffffff82169050919050565b60006100a88261007d565b9050919050565b6100b88161009d565b81146100c357600080fd5b50565b6000815190506100d5816100af565b92915050565b6000602082840312156100f1576100f0610078565b5b60006100ff848285016100c6565b91505092915050565b610d64806101176000396000f3fe60806040526004361061004e5760003560e01c806316fd381a1461005a57806322af00fa146100835780637dc0d1d0146100c55780639aca2792146100f0578063e71c96971461011b57610055565b3661005557005b600080fd5b34801561006657600080fd5b50610081600480360381019061007c9190610748565b610137565b005b34801561008f57600080fd5b506100aa60048036038101906100a59190610748565b6103f9565b6040516100bc969594939291906107e0565b60405180910390f35b3480156100d157600080fd5b506100da610462565b6040516100e791906108a0565b60405180910390f35b3480156100fc57600080fd5b50610105610486565b60405161011291906108bb565b60405180910390f35b610135600480360381019061013091906108d6565b61048c565b005b60006002600083815260200190815260200160002090508060020160009054906101000a900460ff16156101a0576040517f08c379a000000000000000000000000000000000000000000000000000000000815260040161019790610986565b60405180910390fd5b60008060008054906101000a900473ffffffffffffffffffffffffffffffffffffffff1673ffffffffffffffffffffffffffffffffffffffff1663a32107fe846003015485600401546040518363ffffffff1660e01b81526004016102069291906109a6565b6040805180830381865afa158015610222573d6000803e3d6000fd5b505050506040513d601f19601f820116820180604052508101906102469190610a10565b915091508061028a576040517f08c379a000000000000000000000000000000000000000000000000000000000815260040161028190610a9c565b60405180910390fd5b60008360050154831190506000811561035f57600285600101546102ae9190610aeb565b9050804710156102f3576040517f08c379a00000000000000000000000000000000000000000000000000000000081526004016102ea90610b9f565b60405180910390fd5b8460000160009054906101000a900473ffffffffffffffffffffffffffffffffffffffff1673ffffffffffffffffffffffffffffffffffffffff166108fc829081150290604051600060405180830381858888f1935050505015801561035d573d6000803e3d6000fd5b505b60018560020160006101000a81548160ff0219169083151502179055508460000160009054906101000a900473ffffffffffffffffffffffffffffffffffffffff1673ffffffffffffffffffffffffffffffffffffffff16867fe730d6310bec1dfc964bdf1e3f75a78c8ef2dee9d092f9ff09253258852ed7d484846040516103e9929190610bbf565b60405180910390a3505050505050565b60026020528060005260406000206000915090508060000160009054906101000a900473ffffffffffffffffffffffffffffffffffffffff16908060010154908060020160009054906101000a900460ff16908060030154908060040154908060050154905086565b60008054906101000a900473ffffffffffffffffffffffffffffffffffffffff1681565b60015481565b600034116104cf576040517f08c379a00000000000000000000000000000000000000000000000000000000081526004016104c690610c5a565b60405180910390fd5b60008060009054906101000a900473ffffffffffffffffffffffffffffffffffffffff1673ffffffffffffffffffffffffffffffffffffffff1663a32107fe85856040518363ffffffff1660e01b815260040161052d9291906109a6565b6040805180830381865afa158015610549573d6000803e3d6000fd5b505050506040513d601f19601f8201168201806040525081019061056d9190610a10565b91505080156105b1576040517f08c379a00000000000000000000000000000000000000000000000000000000081526004016105a890610cc6565b60405180910390fd5b6040518060c001604052803373ffffffffffffffffffffffffffffffffffffffff1681526020013481526020016000151581526020018581526020018481526020018381525060026000600154815260200190815260200160002060008201518160000160006101000a81548173ffffffffffffffffffffffffffffffffffffffff021916908373ffffffffffffffffffffffffffffffffffffffff1602179055506020820151816001015560408201518160020160006101000a81548160ff021916908315150217905550606082015181600301556080820151816004015560a082015181600501559050503373ffffffffffffffffffffffffffffffffffffffff166001547f87b9df6fa7123c2e6044c3a3a37b4b0662c188d7a58ef86ee55067c46e4613ad346040516106e791906108bb565b60405180910390a36001600081548092919061070290610ce6565b919050555050505050565b600080fd5b6000819050919050565b61072581610712565b811461073057600080fd5b50565b6000813590506107428161071c565b92915050565b60006020828403121561075e5761075d61070d565b5b600061076c84828501610733565b91505092915050565b600073ffffffffffffffffffffffffffffffffffffffff82169050919050565b60006107a082610775565b9050919050565b6107b081610795565b82525050565b6107bf81610712565b82525050565b60008115159050919050565b6107da816107c5565b82525050565b600060c0820190506107f560008301896107a7565b61080260208301886107b6565b61080f60408301876107d1565b61081c60608301866107b6565b61082960808301856107b6565b61083660a08301846107b6565b979650505050505050565b6000819050919050565b600061086661086161085c84610775565b610841565b610775565b9050919050565b60006108788261084b565b9050919050565b600061088a8261086d565b9050919050565b61089a8161087f565b82525050565b60006020820190506108b56000830184610891565b92915050565b60006020820190506108d060008301846107b6565b92915050565b6000806000606084860312156108ef576108ee61070d565b5b60006108fd86828701610733565b935050602061090e86828701610733565b925050604061091f86828701610733565b9150509250925092565b600082825260208201905092915050565b7f42657420616c726561647920736574746c656400000000000000000000000000600082015250565b6000610970601383610929565b915061097b8261093a565b602082019050919050565b6000602082019050818103600083015261099f81610963565b9050919050565b60006040820190506109bb60008301856107b6565b6109c860208301846107b6565b9392505050565b6000815190506109de8161071c565b92915050565b6109ed816107c5565b81146109f857600080fd5b50565b600081519050610a0a816109e4565b92915050565b60008060408385031215610a2757610a2661070d565b5b6000610a35858286016109cf565b9250506020610a46858286016109fb565b9150509250929050565b7f4d61746368206e6f74207965742066696e616c697a6564000000000000000000600082015250565b6000610a86601783610929565b9150610a9182610a50565b602082019050919050565b60006020820190508181036000830152610ab581610a79565b9050919050565b7f4e487b7100000000000000000000000000000000000000000000000000000000600052601160045260246000fd5b6000610af682610712565b9150610b0183610712565b9250828202610b0f81610712565b91508282048414831517610b2657610b25610abc565b5b5092915050565b7f496e73756666696369656e7420636f6e74726163742062616c616e636520666f60008201527f72207061796f7574000000000000000000000000000000000000000000000000602082015250565b6000610b89602883610929565b9150610b9482610b2d565b604082019050919050565b60006020820190508181036000830152610bb881610b7c565b9050919050565b6000604082019050610bd460008301856107d1565b610be160208301846107b6565b9392505050565b7f42657420616d6f756e74206d7573742062652067726561746572207468616e2060008201527f3000000000000000000000000000000000000000000000000000000000000000602082015250565b6000610c44602183610929565b9150610c4f82610be8565b604082019050919050565b60006020820190508181036000830152610c7381610c37565b9050919050565b7f4d6174636820616c72656164792066696e616c697a6564000000000000000000600082015250565b6000610cb0601783610929565b9150610cbb82610c7a565b602082019050919050565b60006020820190508181036000830152610cdf81610ca3565b9050919050565b6000610cf182610712565b91507fffffffffffffffffffffffffffffffffffffffffffffffffffffffffffffffff8203610d2357610d22610abc565b5b60018201905091905056fea2646970667358221220abfc39931f6991455ef43c806e38bfa86f04eb17242f024ff128a8285da6ae9464736f6c63430008140033",
  "linkReferences": {},
  "deployedLinkReferences": {}
}